S014000045696E646F706472616368742E737265633B
S1130000A0C00000BBC00000B9C00000B7C0000021
S1130010B5C00000B3C00000B1C00000AFC0000014
S1130020ADC00000ABC00000A9C00000A7C0000024
S1130030A5C00000A3C00000A1C000009FC0000034
S11300409DC000009BC0000099C0000097C0000044
S113005095C0000093C0000091C000008FC0000054
S11300608DC000008BC0000089C0000087C0000064
S113007085C0000083C0000081C000007FC0000074
S11300807DC000007BC0000079C00000FA030D04AD
S11300900D040D040D040D040D040D040D040D04D4
S11300A00D040D040D040D040D040D040D040D04C4
S11300B00D040D040D040D040D040D040D040D04B4
S11300C00D040D040D040D040D040D040D040D04A4
S11300D00D040D040D040D040D040D040D040D0494
S11300E00D040D040D040D040D040D040D040D0484
S11300F00D040D040D040D040D040D040D040D0474
S11301000D040D040D040D040D040D040D04BE01B5
S1130110D401EA01000216022C02420258026E02C5
S113012084029A02B002C602DC02F20208031E0331
S113013034034A03600376038C03A203B803CE039B
S1130140E40311241FBECFEFD0E1DEBFCDBF12E028
S1130150A0E0B1E0E0EEFAE000E00BBF02C00790DF
S11301600D92AE31B107D9F722E0AEE1B2E001C0A1
S11301701D92A833B207E1F774D3B0C441CF84EA27
S113018080937400E4E7F0E080818823ECF708951D
S11301908093730084E880937400E4E7F0E0808146
S11301A08823ECF708951F93CF93DF931092710087
S11301B080E280937000E3DF80EEEADF81E2E8DF33
S11301C0C4E7D0E014E91883DADF80EEE1DF80EAE7
S11301D0DFDF1883D4DF80EEDBDF83EED9DF188323
S11301E0CEDF80EED5DF81E8D3DF1883DF91CF91B6
S11301F01F910895CF93DF93D82FC62FC0DF80EED1
S1130200C7DF8D2FC5DF8C2FC3DF84E98093740093
S1130210DF91CF9108950F931F93CF93DF93C5E19F
S1130220D2E00DE112E060E08991E4DFC017D1076C
S1130230D1F7DF91CF911F910F910895EF92FF9223
S11302400F931F93CF93DF938C01C5E1D2E06894A1
S1130250EE24E3F8F12CE0912002F0912102EE0D5E
S1130260FF1DEE0FFF1FE00FF11F60818991C2DFB8
S113027081E0E81AF10879F7DF91CF911F910F918E
S1130280FF90EF90089580912002909121020196B1
S1130290909321028093200220911E0230911F022C
S11302A02817390724F4109221021092200208958D
S11302B07ADF8FEF8ABB8AB7806C8ABF89B7806880
S11302C089BF0895181619066CF420E030E0E9EFB0
S11302D0F0E03197F1F700C000002F5F3F4F821725
S11302E09307A9F70895CF92DF92EF92FF920F93AD
S11302F01F93CF93DF9380E692E0C7D28C01AC01C9
S1130300405A5D4F20E1E4E2F2E0DC0101900D92FD
S11303102A95E1F7409684179507A1F780E1E4E276
S1130320F2E0D801509601900D928A95E1F788E0A9
S113033090E090931F0280931E028091110190918E
S11303401201181619060CF07FC2C6E0D1E09C0118
S11303502A5F3E4F79010F2EF2E2CF2EF2E0DF2E1C
S1130360F02D899190E0B2D3FC01FF27B097EB35D3
S1130370F10508F052C2EA5BFF4F7EC280911E0273
S113038090911F02DC01AA0FBB1FA00FB11F2AE02E
S1130390EBE0F2E001900D922A95E1F70596909337
S11303A01F0280931E0239C280911E0290911F0287
S11303B0DC01AA0FBB1FA00FB11F2AE0E1E0F2E0AD
S11303C001900D922A95E1F7059690931F02809370
S11303D01E0223C280911E0290911F02DC01AA0F0B
S11303E0BB1FA00FB11F2AE0E7EFF1E001900D92CF
S11303F02A95E1F7059690931F0280931E020DC281
S113040080911E0290911F02DC01AA0FBB1FA00F56
S1130410B11F2AE0EDEEF1E001900D922A95E1F78B
S1130420059690931F0280931E02F7C180911E02CD
S113043090911F02DC01AA0FBB1FA00FB11F2AE07D
S1130440E3EEF1E001900D922A95E1F70596909381
S11304501F0280931E02E1C180911E0290911F022F
S1130460DC01AA0FBB1FA00FB11F2AE0E9EDF1E0E8
S113047001900D922A95E1F7059690931F028093BF
S11304801E02CBC180911E0290911F02DC01AA0FB3
S1130490BB1FA00FB11F2AE0EFECF1E001900D9219
S11304A02A95E1F7059690931F0280931E02B5C129
S11304B080911E0290911F02DC01AA0FBB1FA00FA6
S11304C0B11F2AE0E5ECF1E001900D922A95E1F7E5
S11304D0059690931F0280931E029FC180911E0275
S11304E090911F02DC01AA0FBB1FA00FB11F2AE0CD
S11304F0EBEBF1E001900D922A95E1F705969093CC
S11305001F0280931E0289C180911E0290911F02D6
S1130510DC01AA0FBB1FA00FB11F28E0E3EBF1E041
S113052001900D922A95E1F7049690931F0280930F
S11305301E0273C180911E0290911F02DC01AA0F5A
S1130540BB1FA00FB11F28E0EBEAF1E001900D9270
S11305502A95E1F7049690931F0280931E025DC1D1
S113056080911E0290911F02DC01AA0FBB1FA00FF5
S1130570B11F28E0E3EAF1E001900D922A95E1F73A
S1130580049690931F0280931E0247C180911E021D
S113059090911F02DC01AA0FBB1FA00FB11F2AE01C
S11305A0E9E9F1E001900D922A95E1F7059690931F
S11305B01F0280931E0231C180911E0290911F027E
S11305C0DC01AA0FBB1FA00FB11F2AE0EFE8F1E086
S11305D001900D922A95E1F7059690931F0280935E
S11305E01E021BC180911E0290911F02DC01AA0F02
S11305F0BB1FA00FB11F2AE0E5E8F1E001900D92C6
S11306002A95E1F7059690931F0280931E0205C177
S113061080911E0290911F02DC01AA0FBB1FA00F44
S1130620B11F2AE0EBE7F1E001900D922A95E1F782
S1130630059690931F0280931E02EFC080911E02C4
S113064090911F02DC01AA0FBB1FA00FB11F2AE06B
S1130650E1E7F1E001900D922A95E1F70596909378
S11306601F0280931E02D9C080911E0290911F0226
S1130670DC01AA0FBB1FA00FB11F2AE0E7E6F1E0DF
S113068001900D922A95E1F7059690931F028093AD
S11306901E02C3C080911E0290911F02DC01AA0FAA
S11306A0BB1FA00FB11F2AE0EDE5F1E001900D9210
S11306B02A95E1F7059690931F0280931E02ADC020
S11306C080911E0290911F02DC01AA0FBB1FA00F94
S11306D0B11F2AE0E3E5F1E001900D922A95E1F7DC
S11306E0059690931F0280931E0297C080911E026C
S11306F090911F02DC01AA0FBB1FA00FB11F2CE0B9
S1130700E7E4F1E001900D922A95E1F706969093C3
S11307101F0280931E0281C080911E0290911F02CD
S1130720DC01AA0FBB1FA00FB11F2AE0EDE3F1E02B
S113073001900D922A95E1F7059690931F028093FC
S11307401E026BC080911E0290911F02DC01AA0F51
S1130750BB1FA00FB11F2AE0E3E3F1E001900D926B
S11307602A95E1F7059690931F0280931E0255C0C7
S113077080911E0290911F02DC01AA0FBB1FA00FE3
S1130780B11F2AE0E9E2F1E001900D922A95E1F728
S1130790059690931F0280931E023FC080911E0213
S11307A090911F02DC01AA0FBB1FA00FB11F2AE00A
S11307B0EFE1F1E001900D922A95E1F7059690930F
S11307C01F0280931E0229C080911E0290911F0275
S11307D0DC01AA0FBB1FA00FB11F2CE0E3E1F1E085
S11307E001900D922A95E1F7069690931F0280934B
S11307F01E0213C080911E0290911F02FC01EE0F95
S1130800FF1FE00FF11FD6012D913C91318320830E
S1130810029690931F0280931E0280911E02909173
S11308201F02FC01EE0FFF1FE00FF11FD6012D91F7
S11308303C9131832083019690931F0280931E0282
S1130840EC16FD0609F08DCDC801F8DCC801B5D061
S1130850DF91CF911F910F91FF90EF90DF90CF9098
S11308600895D9DC25DD84EF91E02CDD3CDD0BDD42
S113087084EF91E027DDFACFEE0FFF1F0024001C68
S11308800BBE0790F691E02D09940F931F93CF931D
S1130890DF938230910510F482E090E0E09136021B
S11308A0F091370220E030E0A0E0B0E0309719F199
S11308B0408151810281138148175907C8F0841778
S11308C0950769F4109731F012960C9312971396CA
S11308D01C9327C0009336021093370222C02115BF
S11308E0310519F04217530718F49A01BD01EF01BD
S11308F0DF01F801DBCF21153105F9F0281B390B95
S11309002430310580F48A819B816115710521F0C1
S1130910FB019383828304C0909337028093360251
S1130920FE01329644C0FE01E20FF31F81939193BE
S113093022503109398328833AC0209134023091FE
S11309403502232B41F420910201309103013093AD
S113095035022093340220910001309101012115C8
S1130960310541F42DB73EB7409104015091050182
S1130970241B350BE0913402F0913502E217F307A2
S1130980A0F42E1B3F0B2817390778F0AC014E5FFB
S11309905F4F2417350748F04E0F5F1F5093350201
S11309A0409334028193919302C0E0E0F0E0CF01E0
S11309B0DF91CF911F910F910895CF93DF9300970B
S11309C009F481C0FC01329713821282A09136028D
S11309D0B0913702109781F420813181820F931FE7
S11309E020913402309135022817390751F5F093DC
S11309F03502E093340267C0ED0120E030E0CE1709
S1130A00DF0740F44A815B819E0141155105F1F0F5
S1130A10EA01F5CFD383C28340815181840F951FAE
S1130A20C817D90759F488819981840F951F0296B4
S1130A30918380838A819B819383828321153105ED
S1130A4029F4F0933702E09336023DC0E901FB83B9
S1130A50EA8349915991C40FD51FEC17FD0761F43E
S1130A6080819181840F951F0296E901998388837F
S1130A70828193819B838A83E0E0F0E012968D91DA
S1130A809C911397009719F0FD01DC01F7CF8D912C
S1130A909C9111979D012E5F3F4F820F931F2091D0
S1130AA03402309135022817390769F4309729F454
S1130AB0109237021092360202C013821282B0934F
S1130AC03502A0933402DF91CF91089591110895D6
S1130AD081548A5108F4805E855A0895F894FFCFB2
S1130AE000003802200073656E64206E75646573BF
S1130AF0000A004100610051004900450043002202
S1130B0000140008000400020011000A0004000A96
S1130B100011001F0020001C0020001F0007000817
S1130B20001000080007000F00100010001000085B
S1130B30001F00010001003F000100010016002514
S1130B4000250029001A003F0009001900290006A9
S1130B500006000900090009003F003F00090009E0
S1130B6000090006003F002100210021003F003F52
S1130B70000200040008003F003F000100070001DC
S1130B80003F003F002000200020003F0004000A36
S1130B900031003100210021003F00210021003FED
S1130BA000210021003F000400040004003F003F36
S1130BB0002100250025003D003F0005000500053B
S1130BC00001003F0025002500210021003F0021F5
S1130BD000210021001E001E00210021002100210F
S1130BE0003F002500250025001A003E00090009E9
S1110BF00009003E0000020406080A0C0E0074
S9030000FC
